:020000020000FC
:1000000000001F1E2E0EC6964D220D7F5594F894AB
:1000100066F80000F0F7E9F7E2F7DBF7D4F7CDF781
:10002000C6F7BFF738F031F02AF023F01CF015F0D6
:100030000EF007F008F4F0F708F0F0F309F0F1F330
:100040000CF4F4F70DF4F5F70DF0F5F30FF4F7F702
:100050000FF0F7F308F0F0F30CF0F4F30AF0F2F31A
:1000600009F4F1F70AF4F2F708F4F0F70EF4F6F7F2
:100070000EF0F6F30BF4F3F70BF0F3F3689475FA64
:100080000E9400000E9409000E944700000044985E
:100090008894D894F894A894C894E894B8949894C0
:1000A0009094AB14CD040F35EF101A9523270995C2
:1000B000099449B153950C9409000C947A006C9101
:1000C0007D918E919881A991BA91CFADD081E19126
:1000D000F29101801AEA10903930C8952694342C98
:1000E000569C719489282565A9B8BF90CF9291DF5D
:1000F00001D0000008951895FDCF01C00000D794ED
:10010000EF083345529A5B99649BDC973E6F45FD3F
:1001100056FF089458947894289448946894389496
:1001200018946FEF88957C938D939E93A883B993D1
:10013000CA93DAA3E083F193029213A2209200FF04
:100140003418FB574294A89500000C94A50028632E
:100150002920313939392054616C6B657220427421
:020160002E006F
:00000001FF
