:020000020000FC
:100000000C943C0000E000E110E011E1E0E0EEE1E2
:10001000EFEFE7E4F0E0C895E8E4F0E0C895F0E041
:10002000E4E605E6018307AF118027ACF0E0EFEFCF
:1000300028E5208361907290D0E0C4E615E41A832D
:100040001EAF3A804EACD0E0CFEF35E538838990D3
:100050009A90B0E0AFEF30E73C934C91AD90BE90FA
:10006000F0E0EFEF02E41DE401931293D0E0CFEF54
:1000700028E533E629933A93B0E0AFEF46E15BE041
:100080004D935E935090A2005092A100000028630F
:100090002920323030302054616C6B6572204274FC
:0200A0002E0030
:00000001FF
