:020000020000FC
:100000000C94420010E0009A009B11E00098009BC5
:1000100012E0000010E00098009911E0009A0099A9
:1000200012E0000000240FBE0894289418947894DD
:1000300048943894689458948894A8949894F89420
:10004000C894B894E894D8940000009A019A029A4F
:10005000039A049A059A069A079A0000849AFF9ACE
:100060000000009801980298039804980598069853
:10007000079805E500FB01FB02FB03FB04FB05FB06
:1000800006FB07FB00E0689400F901E0E89400F942
:10009000000028632920313939392C3230303020A2
:0A00A00054616C6B65722042742EEF
:00000001FF
